:100000000C943E000C9450000C9450000C94500042
:100010000C9450000C9450000C9450000C94500020
:100020000C9450000C9450000C9450000C9441011E
:100030000C9450000C9450000C9450000C94500000
:100040000C9450000C9450000C9450000C945000F0
:100050000C9450000C9450000C9450000C945000E0
:100060000C9450000C9450005C0060006400680028
:100070006C007000740078007C00800011241FBEAA
:10008000CFEFD8E0DEBFCDBF21E0A0E0B1E001C0FE
:100090001D92A330B207E1F70E9499000C947401FD
:1000A0000C94000090E08A30910508F040C0FC01FB
:1000B000EC5CFF4F0C946E01613031F52FE337C0DB
:1000C000613021F526E033C0613011F52BE52FC0FA
:1000D000613001F52FE42BC06130F1F426E627C032
:1000E0006130E1F42DE623C06130D1F42DE71FC06B
:1000F0006130C1F427E01BC06130B1F42FE717C0B5
:100100006130A1F42FE613C020EC11C029EF0FC01D
:1001100024EA0DC020EB0BC029E909C022E907C081
:1001200022E805C028EF03C020E801C020E9822FA3
:1001300008958FEF84B99FE397B988B98CE08093D5
:10014000810088E09DE3909389008093880082E09D
:1001500080936E007894369915C02FEF80E792E077
:10016000215080409040E1F700C0000080910101E3
:100170008B3330F4809101018F5F8093010102C0C5
:1001800010920101379915C02FEF80E792E02150BE
:1001900080409040E1F700C000008091020187316B
:1001A00030F4809102018F5F8093020102C01092AF
:1001B000020180910001CDEC8C9F912D1124969528
:1001C00096959695990F292F220F220F920F61E095
:1001D000891B0E94520085B98EEF88B98091000179
:1001E0008C9F812D112461E08695869586950E94CD
:1001F000520085B98DEF88B9809101018C9F912DB6
:100200001124969596959695990F292F220F220FD6
:10021000920F61E0891B0E94520085B98BEF88B96B
:10022000809101018C9F812D112461E08695869536
:1002300086950E94520085B987EF88B980910201A6
:100240008C9F912D1124969596959695990F292F0F
:10025000220F220F920F61E0891B0E94520085B984
:100260008FEE88B9809102018C9F812D112461E06D
:100270008695869586950E94520085B98FED88B93E
:100280006ACF1F920F920FB60F9211248F93809115
:1002900000018F5F80930001809100018C3339F45D
:1002A00010920001809101018F5F80930101809184
:1002B00001018C3339F410920101809102018F5FAA
:1002C0008093020180910201883110F010920201A6
:1002D0008F910F900FBE0F901F901895EE0FFF1F7C
:0C02E0000590F491E02D0994F894FFCFF4
:00000001FF
